{
    "_format": "hh-sol-artifact-1",
    "contractName": "SwapExamples",
    "sourceName": "../../contracts/SwapExamples.sol",
    "abi": [
        {
            "inputs": [
                {
                    "internalType": "contract ISwapRouter",
                    "name": "_swapRouter",
                    "type": "address"
                }
            ],
            "stateMutability": "nonpayable",
            "type": "constructor"
        },
        {
            "inputs": [],
            "name": "SETH",
            "outputs": [
                {
                    "internalType": "address",
                    "name": "",
                    "type": "address"
                }
            ],
            "stateMutability": "view",
            "type": "function"
        },
        {
            "inputs": [],
            "name": "USDC",
            "outputs": [
                {
                    "internalType": "address",
                    "name": "",
                    "type": "address"
                }
            ],
            "stateMutability": "view",
            "type": "function"
        },
        {
            "inputs": [],
            "name": "poolFee",
            "outputs": [
                {
                    "internalType": "uint24",
                    "name": "",
                    "type": "uint24"
                }
            ],
            "stateMutability": "view",
            "type": "function"
        },
        {
            "inputs": [
                {
                    "internalType": "uint256",
                    "name": "amountIn",
                    "type": "uint256"
                }
            ],
            "name": "swapExactInputSingle",
            "outputs": [
                {
                    "internalType": "uint256",
                    "name": "amountOut",
                    "type": "uint256"
                }
            ],
            "stateMutability": "nonpayable",
            "type": "function"
        },
        {
            "inputs": [
                {
                    "internalType": "uint256",
                    "name": "amountOut",
                    "type": "uint256"
                },
                {
                    "internalType": "uint256",
                    "name": "amountInMaximum",
                    "type": "uint256"
                }
            ],
            "name": "swapExactOutputSingle",
            "outputs": [
                {
                    "internalType": "uint256",
                    "name": "amountIn",
                    "type": "uint256"
                }
            ],
            "stateMutability": "nonpayable",
            "type": "function"
        },
        {
            "inputs": [],
            "name": "swapRouter",
            "outputs": [
                {
                    "internalType": "contract ISwapRouter",
                    "name": "",
                    "type": "address"
                }
            ],
            "stateMutability": "view",
            "type": "function"
        }
    ],
    "bytecode": "0x60a06040523480156200001157600080fd5b50604051620012503803806200125083398181016040528101906200003791906200008c565b8073ffffffffffffffffffffffffffffffffffffffff1660808173ffffffffffffffffffffffffffffffffffffffff1660601b81525050506200011a565b600081519050620000868162000100565b92915050565b6000602082840312156200009f57600080fd5b6000620000af8482850162000075565b91505092915050565b6000620000c582620000e0565b9050919050565b6000620000d982620000b8565b9050919050565b600073ffffffffffffffffffffffffffffffffffffffff82169050919050565b6200010b81620000cc565b81146200011757600080fd5b50565b60805160601c6110ff62000151600039806101805280610273528061035652806103b452806104a6528061057352506110ff6000f3fe608060405234801561001057600080fd5b50600436106100625760003560e01c8063089fe6aa1461006757806373bd43ad1461008557806389a30271146100b55780638eed0a51146100d3578063c31c9c07146100f1578063c4b69a181461010f575b600080fd5b61006f61013f565b60405161007c919061100d565b60405180910390f35b61009f600480360381019061009a9190610d55565b610144565b6040516100ac9190611028565b60405180910390f35b6100bd610324565b6040516100ca9190610f9f565b60405180910390f35b6100db61033c565b6040516100e89190610f9f565b60405180910390f35b6100f9610354565b6040516101069190610fba565b60405180910390f35b61012960048036038101906101249190610da7565b610378565b6040516101369190611028565b60405180910390f35b600381565b600061016673d38e5c25935291ffd51c9d66c3b7384494bb099a3330856105c2565b6101a573d38e5c25935291ffd51c9d66c3b7384494bb099a7f0000000000000000000000000000000000000000000000000000000000000000846107e3565b6101ad610be7565b60405180610100016040528073d38e5c25935291ffd51c9d66c3b7384494bb099a73ffffffffffffffffffffffffffffffffffffffff16815260200173fa0e305e0f46ab04f00ae6b5f4560d61a2183e0073ffffffffffffffffffffffffffffffffffffffff168152602001600362ffffff1681526020013373ffffffffffffffffffffffffffffffffffffffff16815260200142815260200184815260200160008152602001600073ffffffffffffffffffffffffffffffffffffffff1681525090507f000000000000000000000000000000000000000000000000000000000000000073ffffffffffffffffffffffffffffffffffffffff1663414bf389826040518263ffffffff1660e01b81526004016102ca9190610fd5565b602060405180830381600087803b1580156102e457600080fd5b505af11580156102f8573d6000803e3d6000fd5b505050506040513d601f19601f8201168201806040525081019061031c9190610d7e565b915050919050565b73fa0e305e0f46ab04f00ae6b5f4560d61a2183e0081565b73d38e5c25935291ffd51c9d66c3b7384494bb099a81565b7f000000000000000000000000000000000000000000000000000000000000000081565b600061039a73d38e5c25935291ffd51c9d66c3b7384494bb099a3330856105c2565b6103d973d38e5c25935291ffd51c9d66c3b7384494bb099a7f0000000000000000000000000000000000000000000000000000000000000000846107e3565b6103e1610c89565b60405180610100016040528073d38e5c25935291ffd51c9d66c3b7384494bb099a73ffffffffffffffffffffffffffffffffffffffff16815260200173fa0e305e0f46ab04f00ae6b5f4560d61a2183e0073ffffffffffffffffffffffffffffffffffffffff168152602001600362ffffff1681526020013373ffffffffffffffffffffffffffffffffffffffff168152602001428152602001858152602001848152602001600073ffffffffffffffffffffffffffffffffffffffff1681525090507f000000000000000000000000000000000000000000000000000000000000000073ffffffffffffffffffffffffffffffffffffffff1663db3e2198826040518263ffffffff1660e01b81526004016104fd9190610ff1565b602060405180830381600087803b15801561051757600080fd5b505af115801561052b573d6000803e3d6000fd5b505050506040513d601f19601f8201168201806040525081019061054f9190610d7e565b9150828210156105bb5761059973d38e5c25935291ffd51c9d66c3b7384494bb099a7f000000000000000000000000000000000000000000000000000000000000000060006107e3565b6105ba73d38e5c25935291ffd51c9d66c3b7384494bb099a338486036109e5565b5b5092915050565b600060608573ffffffffffffffffffffffffffffffffffffffff166323b872dd60e01b868686604051602401808473ffffffffffffffffffffffffffffffffffffffff1681526020018373ffffffffffffffffffffffffffffffffffffffff1681526020018281526020019350505050604051602081830303815290604052907bffffffffffffffffffffffffffffffffffffffffffffffffffffffff19166020820180517bffffffffffffffffffffffffffffffffffffffffffffffffffffffff83818316178352505050506040518082805190602001908083835b602083106106c2578051825260208201915060208101905060208303925061069f565b6001836020036101000a0380198251168184511680821785525050505050509050019150506000604051808303816000865af19150503d8060008114610724576040519150601f19603f3d011682016040523d82523d6000602084013e610729565b606091505b50915091508180156107695750600081511480610768575080806020019051602081101561075657600080fd5b81019080805190602001909291905050505b5b6107db576040517f08c379a00000000000000000000000000000000000000000000000000000000081526004018080602001828103825260038152602001807f535446000000000000000000000000000000000000000000000000000000000081525060200191505060405180910390fd5b505050505050565b600060608473ffffffffffffffffffffffffffffffffffffffff1663095ea7b360e01b8585604051602401808373ffffffffffffffffffffffffffffffffffffffff16815260200182815260200192505050604051602081830303815290604052907bffffffffffffffffffffffffffffffffffffffffffffffffffffffff19166020820180517bffffffffffffffffffffffffffffffffffffffffffffffffffffffff83818316178352505050506040518082805190602001908083835b602083106108c557805182526020820191506020810190506020830392506108a2565b6001836020036101000a0380198251168184511680821785525050505050509050019150506000604051808303816000865af19150503d8060008114610927576040519150601f19603f3d011682016040523d82523d6000602084013e61092c565b606091505b509150915081801561096c575060008151148061096b575080806020019051602081101561095957600080fd5b81019080805190602001909291905050505b5b6109de576040517f08c379a00000000000000000000000000000000000000000000000000000000081526004018080602001828103825260028152602001807f534100000000000000000000000000000000000000000000000000000000000081525060200191505060405180910390fd5b5050505050565b600060608473ffffffffffffffffffffffffffffffffffffffff1663a9059cbb60e01b8585604051602401808373ffffffffffffffffffffffffffffffffffffffff16815260200182815260200192505050604051602081830303815290604052907bffffffffffffffffffffffffffffffffffffffffffffffffffffffff19166020820180517bffffffffffffffffffffffffffffffffffffffffffffffffffffffff83818316178352505050506040518082805190602001908083835b60208310610ac75780518252602082019150602081019050602083039250610aa4565b6001836020036101000a0380198251168184511680821785525050505050509050019150506000604051808303816000865af19150503d8060008114610b29576040519150601f19603f3d011682016040523d82523d6000602084013e610b2e565b606091505b5091509150818015610b6e5750600081511480610b6d5750808060200190516020811015610b5b57600080fd5b81019080805190602001909291905050505b5b610be0576040517f08c379a00000000000000000000000000000000000000000000000000000000081526004018080602001828103825260028152602001807f535400000000000000000000000000000000000000000000000000000000000081525060200191505060405180910390fd5b5050505050565b604051806101000160405280600073ffffffffffffffffffffffffffffffffffffffff168152602001600073ffffffffffffffffffffffffffffffffffffffff168152602001600062ffffff168152602001600073ffffffffffffffffffffffffffffffffffffffff168152602001600081526020016000815260200160008152602001600073ffffffffffffffffffffffffffffffffffffffff1681525090565b604051806101000160405280600073ffffffffffffffffffffffffffffffffffffffff168152602001600073ffffffffffffffffffffffffffffffffffffffff168152602001600062ffffff168152602001600073ffffffffffffffffffffffffffffffffffffffff168152602001600081526020016000815260200160008152602001600073ffffffffffffffffffffffffffffffffffffffff1681525090565b600081359050610d3a816110b2565b92915050565b600081519050610d4f816110b2565b92915050565b600060208284031215610d6757600080fd5b6000610d7584828501610d2b565b91505092915050565b600060208284031215610d9057600080fd5b6000610d9e84828501610d40565b91505092915050565b60008060408385031215610dba57600080fd5b6000610dc885828601610d2b565b9250506020610dd985828601610d2b565b9150509250929050565b610dec81611043565b82525050565b610dfb81611043565b82525050565b610e0a8161108e565b82525050565b61010082016000820151610e276000850182610de3565b506020820151610e3a6020850182610de3565b506040820151610e4d6040850182610f63565b506060820151610e606060850182610de3565b506080820151610e736080850182610f81565b5060a0820151610e8660a0850182610f81565b5060c0820151610e9960c0850182610f81565b5060e0820151610eac60e0850182610f54565b50505050565b61010082016000820151610ec96000850182610de3565b506020820151610edc6020850182610de3565b506040820151610eef6040850182610f63565b506060820151610f026060850182610de3565b506080820151610f156080850182610f81565b5060a0820151610f2860a0850182610f81565b5060c0820151610f3b60c0850182610f81565b5060e0820151610f4e60e0850182610f54565b50505050565b610f5d81611055565b82525050565b610f6c81611075565b82525050565b610f7b81611075565b82525050565b610f8a81611084565b82525050565b610f9981611084565b82525050565b6000602082019050610fb46000830184610df2565b92915050565b6000602082019050610fcf6000830184610e01565b92915050565b600061010082019050610feb6000830184610e10565b92915050565b6000610100820190506110076000830184610eb2565b92915050565b60006020820190506110226000830184610f72565b92915050565b600060208201905061103d6000830184610f90565b92915050565b600061104e82611055565b9050919050565b600073ffffffffffffffffffffffffffffffffffffffff82169050919050565b600062ffffff82169050919050565b6000819050919050565b6000611099826110a0565b9050919050565b60006110ab82611055565b9050919050565b6110bb81611084565b81146110c657600080fd5b5056fea26469706673582212201ce0a498bc69ae216798c3875cbb37599a04b9cbfadce2ad2b0de3e8f2facf7764736f6c63430007050033",
    "linkReferences": {},
    "deployedLinkReferences": {}
}